{
  "contractName": "WorldSkills",
  "abi": [
    {
      "inputs": [],
      "payable": false,
      "stateMutability": "nonpayable",
      "type": "constructor"
    },
    {
      "constant": true,
      "inputs": [],
      "name": "globalMailCount",
      "outputs": [
        {
          "internalType": "uint256",
          "name": "",
          "type": "uint256"
        }
      ],
      "payable": false,
      "stateMutability": "view",
      "type": "function"
    },
    {
      "constant": false,
      "inputs": [],
      "name": "resetCount",
      "outputs": [],
      "payable": false,
      "stateMutability": "nonpayable",
      "type": "function"
    },
    {
      "constant": false,
      "inputs": [
        {
          "internalType": "address",
          "name": "adr",
          "type": "address"
        },
        {
          "internalType": "string",
          "name": "name",
          "type": "string"
        },
        {
          "internalType": "string",
          "name": "homeadr",
          "type": "string"
        }
      ],
      "name": "AddAdmin",
      "outputs": [],
      "payable": false,
      "stateMutability": "nonpayable",
      "type": "function"
    },
    {
      "constant": false,
      "inputs": [
        {
          "internalType": "address",
          "name": "adr",
          "type": "address"
        },
        {
          "internalType": "string",
          "name": "name",
          "type": "string"
        },
        {
          "internalType": "string",
          "name": "homeadr",
          "type": "string"
        },
        {
          "internalType": "string",
          "name": "Id",
          "type": "string"
        }
      ],
      "name": "AddWorker",
      "outputs": [],
      "payable": false,
      "stateMutability": "nonpayable",
      "type": "function"
    },
    {
      "constant": false,
      "inputs": [
        {
          "internalType": "string",
          "name": "name",
          "type": "string"
        },
        {
          "internalType": "string",
          "name": "homeadr",
          "type": "string"
        }
      ],
      "name": "UserRegister",
      "outputs": [],
      "payable": false,
      "stateMutability": "nonpayable",
      "type": "function"
    },
    {
      "constant": true,
      "inputs": [
        {
          "internalType": "uint256",
          "name": "id",
          "type": "uint256"
        }
      ],
      "name": "getMail1",
      "outputs": [
        {
          "internalType": "string",
          "name": "",
          "type": "string"
        },
        {
          "internalType": "address",
          "name": "",
          "type": "address"
        },
        {
          "internalType": "address",
          "name": "",
          "type": "address"
        },
        {
          "internalType": "string",
          "name": "",
          "type": "string"
        },
        {
          "internalType": "uint256",
          "name": "",
          "type": "uint256"
        },
        {
          "internalType": "uint256",
          "name": "",
          "type": "uint256"
        },
        {
          "internalType": "uint256",
          "name": "",
          "type": "uint256"
        }
      ],
      "payable": false,
      "stateMutability": "view",
      "type": "function"
    },
    {
      "constant": true,
      "inputs": [
        {
          "internalType": "uint256",
          "name": "id",
          "type": "uint256"
        }
      ],
      "name": "getMail2",
      "outputs": [
        {
          "internalType": "uint256",
          "name": "",
          "type": "uint256"
        },
        {
          "internalType": "uint256",
          "name": "",
          "type": "uint256"
        },
        {
          "internalType": "uint256",
          "name": "",
          "type": "uint256"
        },
        {
          "internalType": "string",
          "name": "",
          "type": "string"
        },
        {
          "internalType": "string",
          "name": "",
          "type": "string"
        },
        {
          "internalType": "bool",
          "name": "",
          "type": "bool"
        },
        {
          "internalType": "bool",
          "name": "",
          "type": "bool"
        }
      ],
      "payable": false,
      "stateMutability": "view",
      "type": "function"
    },
    {
      "constant": true,
      "inputs": [
        {
          "internalType": "uint256",
          "name": "id",
          "type": "uint256"
        }
      ],
      "name": "getMail3",
      "outputs": [
        {
          "internalType": "uint256",
          "name": "",
          "type": "uint256"
        },
        {
          "internalType": "bool",
          "name": "",
          "type": "bool"
        },
        {
          "internalType": "bool",
          "name": "",
          "type": "bool"
        },
        {
          "internalType": "bool",
          "name": "",
          "type": "bool"
        }
      ],
      "payable": false,
      "stateMutability": "view",
      "type": "function"
    },
    {
      "constant": false,
      "inputs": [
        {
          "internalType": "string",
          "name": "trek",
          "type": "string"
        },
        {
          "internalType": "address payable",
          "name": "sender",
          "type": "address"
        },
        {
          "internalType": "address payable",
          "name": "receiver",
          "type": "address"
        },
        {
          "internalType": "uint256",
          "name": "startpostindex",
          "type": "uint256"
        },
        {
          "internalType": "uint256",
          "name": "endpostindex",
          "type": "uint256"
        },
        {
          "internalType": "string",
          "name": "mailtype",
          "type": "string"
        },
        {
          "internalType": "uint256",
          "name": "class",
          "type": "uint256"
        },
        {
          "internalType": "uint256",
          "name": "weight",
          "type": "uint256"
        },
        {
          "internalType": "uint256",
          "name": "decvalue",
          "type": "uint256"
        },
        {
          "internalType": "string",
          "name": "sendadr",
          "type": "string"
        },
        {
          "internalType": "string",
          "name": "recadr",
          "type": "string"
        }
      ],
      "name": "CreateMail",
      "outputs": [],
      "payable": false,
      "stateMutability": "nonpayable",
      "type": "function"
    },
    {
      "constant": false,
      "inputs": [
        {
          "internalType": "string",
          "name": "trek",
          "type": "string"
        }
      ],
      "name": "payForMail",
      "outputs": [],
      "payable": true,
      "stateMutability": "payable",
      "type": "function"
    },
    {
      "constant": false,
      "inputs": [
        {
          "internalType": "string",
          "name": "trek",
          "type": "string"
        },
        {
          "internalType": "uint256",
          "name": "index",
          "type": "uint256"
        },
        {
          "internalType": "uint256",
          "name": "weight",
          "type": "uint256"
        }
      ],
      "name": "CreateTranzitPoint",
      "outputs": [],
      "payable": false,
      "stateMutability": "nonpayable",
      "type": "function"
    },
    {
      "constant": false,
      "inputs": [
        {
          "internalType": "string",
          "name": "trek",
          "type": "string"
        }
      ],
      "name": "UserNotification",
      "outputs": [],
      "payable": false,
      "stateMutability": "nonpayable",
      "type": "function"
    },
    {
      "constant": false,
      "inputs": [
        {
          "internalType": "string",
          "name": "trek",
          "type": "string"
        },
        {
          "internalType": "uint256",
          "name": "mail_id",
          "type": "uint256"
        }
      ],
      "name": "NotReceived",
      "outputs": [],
      "payable": false,
      "stateMutability": "nonpayable",
      "type": "function"
    },
    {
      "constant": false,
      "inputs": [
        {
          "internalType": "string",
          "name": "trek",
          "type": "string"
        }
      ],
      "name": "NotDeliveredInTime",
      "outputs": [],
      "payable": true,
      "stateMutability": "payable",
      "type": "function"
    },
    {
      "constant": false,
      "inputs": [
        {
          "internalType": "string",
          "name": "trek",
          "type": "string"
        }
      ],
      "name": "refuseMail",
      "outputs": [],
      "payable": false,
      "stateMutability": "nonpayable",
      "type": "function"
    },
    {
      "constant": false,
      "inputs": [
        {
          "internalType": "string",
          "name": "trek",
          "type": "string"
        }
      ],
      "name": "acceptMail",
      "outputs": [],
      "payable": true,
      "stateMutability": "payable",
      "type": "function"
    },
    {
      "constant": false,
      "inputs": [
        {
          "internalType": "address payable",
          "name": "receiver",
          "type": "address"
        },
        {
          "internalType": "uint256",
          "name": "time",
          "type": "uint256"
        }
      ],
      "name": "createTransfer",
      "outputs": [],
      "payable": true,
      "stateMutability": "payable",
      "type": "function"
    },
    {
      "constant": false,
      "inputs": [
        {
          "internalType": "uint256",
          "name": "transfer_id",
          "type": "uint256"
        }
      ],
      "name": "acceptTransfer",
      "outputs": [],
      "payable": true,
      "stateMutability": "payable",
      "type": "function"
    },
    {
      "constant": false,
      "inputs": [
        {
          "internalType": "uint256",
          "name": "transfer_id",
          "type": "uint256"
        }
      ],
      "name": "refuseTransfer",
      "outputs": [],
      "payable": true,
      "stateMutability": "payable",
      "type": "function"
    }
  ],
  "bytecode": "0x60806040526000600755600060085533600960006101000a81548173ffffffffffffffffffffffffffffffffffffffff021916908373ffffffffffffffffffffffffffffffffffffffff1602179055506000600a60006101000a81548173ffffffffffffffffffffffffffffffffffffffff021916908373ffffffffffffffffffffffffffffffffffffffff1602179055503480156200009e57600080fd5b5060046040518061024001604052806040518060400160405280600281526020017f32320000000000000000000000000000000000000000000000000000000000008152508152602001600073ffffffffffffffffffffffffffffffffffffffff168152602001600073ffffffffffffffffffffffffffffffffffffffff1681526020016040518060400160405280600281526020017f323200000000000000000000000000000000000000000000000000000000000081525081526020016016815260200160168152602001600281526020016002815260200160028152602001600281526020016040518060400160405280600181526020017f320000000000000000000000000000000000000000000000000000000000000081525081526020016040518060400160405280600181526020017f3200000000000000000000000000000000000000000000000000000000000000815250815260200160008152602001600015158152602001600015158152602001600015158152602001600015158152602001600015158152509080600181540180825580915050906001820390600052602060002090600e02016000909192909190915060008201518160000190805190602001906200027892919062001762565b5060208201518160010160006101000a81548173ffffffffffffffffffffffffffffffffffffffff021916908373ffffffffffffffffffffffffffffffffffffffff16021790555060408201518160020160006101000a81548173ffffffffffffffffffffffffffffffffffffffff021916908373ffffffffffffffffffffffffffffffffffffffff16021790555060608201518160030190805190602001906200032592919062001762565b506080820151816004015560a0820151816005015560c0820151816006015560e082015181600701556101008201518160080155610120820151816009015561014082015181600a0190805190602001906200038392919062001762565b5061016082015181600b019080519060200190620003a392919062001762565b5061018082015181600c01556101a082015181600d0160006101000a81548160ff0219169083151502179055506101c082015181600d0160016101000a81548160ff0219169083151502179055506101e082015181600d0160026101000a81548160ff02191690831515021790555061020082015181600d0160036101000a81548160ff02191690831515021790555061022082015181600d0160046101000a81548160ff02191690831515021790555050505060016040518060a001604052803373ffffffffffffffffffffffffffffffffffffffff1681526020016040518060400160405280601281526020017fd090d0bbd0b5d0bad181d0b0d0bdd0b4d180000000000000000000000000000081525081526020016040518060400160405280601381526020017fd09dd0b8d0bad0b8d182d0b8d0bdd0b02038350000000000000000000000000081525081526020016040518060400160405280601981526020017fd093d0bbd0b0d0b2d0bdd18bd0b920d0b0d0b4d0bcd0b8d0bd000000000000008152508152602001600115158152509080600181540180825580915050906001820390600052602060002090600502016000909192909190915060008201518160000160006101000a81548173ffffffffffffffffffffffffffffffffffffffff021916908373ffffffffffffffffffffffffffffffffffffffff1602179055506020820151816001019080519060200190620005c892919062001762565b506040820151816002019080519060200190620005e792919062001762565b5060608201518160030190805190602001906200060692919062001762565b5060808201518160040160006101000a81548160ff021916908315150217905550505050600360405180606001604052806040518060400160405280601a81526020017fd0a0d0bed181d182d0bed0b22dd0bdd0b02dd094d0bed0bdd183000000000000815250815260200162053fc063ffffffff168152602001734b20993bc481177ec7e8f571cecae8a9e22c02db73ffffffffffffffffffffffffffffffffffffffff16815250908060018154018082558091505090600182039060005260206000209060020201600090919290919091506000820151816000019080519060200190620006f892919062001762565b5060208201518160010160006101000a81548163ffffffff021916908363ffffffff16021790555060408201518160010160046101000a81548173ffffffffffffffffffffffffffffffffffffffff021916908373ffffffffffffffffffffffffffffffffffffffff1602179055505050506004600b6000734b20993bc481177ec7e8f571cecae8a9e22c02db73ffffffffffffffffffffffffffffffffffffffff1673ffffffffffffffffffffffffffffffffffffffff16815260200190815260200160002081905550734b20993bc481177ec7e8f571cecae8a9e22c02db6014600062053fc0815260200190815260200160002060006101000a81548173ffffffffffffffffffffffffffffffffffffffff021916908373ffffffffffffffffffffffffffffffffffffffff160217905550600360405180606001604052806040518060600160405280603381526020016200638b60339139815260200162054efc63ffffffff1681526020017378731d3ca6b7e34ac0f824c42a7cc18a495cabab73ffffffffffffffffffffffffffffffffffffffff16815250908060018154018082558091505090600182039060005260206000209060020201600090919290919091506000820151816000019080519060200190620008de92919062001762565b5060208201518160010160006101000a81548163ffffffff021916908363ffffffff16021790555060408201518160010160046101000a81548173ffffffffffffffffffffffffffffffffffffffff021916908373ffffffffffffffffffffffffffffffffffffffff1602179055505050506004600b60007378731d3ca6b7e34ac0f824c42a7cc18a495cabab73ffffffffffffffffffffffffffffffffffffffff1673ffffffffffffffffffffffffffffffffffffffff168152602001908152602001600020819055507378731d3ca6b7e34ac0f824c42a7cc18a495cabab6014600062054efc815260200190815260200160002060006101000a81548173ffffffffffffffffffffffffffffffffffffffff021916908373ffffffffffffffffffffffffffffffffffffffff160217905550600360405180606001604052806040518060600160405280602681526020016200636560269139815260200162054f1f63ffffffff16815260200173617f2e2fd72fd9d5503197092ac168c91465e7f273ffffffffffffffffffffffffffffffffffffffff1681525090806001815401808255809150509060018203906000526020600020906002020160009091929091909150600082015181600001908051906020019062000ac492919062001762565b5060208201518160010160006101000a81548163ffffffff021916908363ffffffff16021790555060408201518160010160046101000a81548173ffffffffffffffffffffffffffffffffffffffff021916908373ffffffffffffffffffffffffffffffffffffffff1602179055505050506004600b600073617f2e2fd72fd9d5503197092ac168c91465e7f273ffffffffffffffffffffffffffffffffffffffff1673ffffffffffffffffffffffffffffffffffffffff1681526020019081526020016000208190555073617f2e2fd72fd9d5503197092ac168c91465e7f26014600062054f1f815260200190815260200160002060006101000a81548173ffffffffffffffffffffffffffffffffffffffff021916908373ffffffffffffffffffffffffffffffffffffffff160217905550600360405180606001604052806040518060600160405280602681526020016200644e60269139815260200162054f0963ffffffff1681526020017317f6ad8ef982297579c203069c1dbffe4348c37273ffffffffffffffffffffffffffffffffffffffff1681525090806001815401808255809150509060018203906000526020600020906002020160009091929091909150600082015181600001908051906020019062000caa92919062001762565b5060208201518160010160006101000a81548163ffffffff021916908363ffffffff16021790555060408201518160010160046101000a81548173ffffffffffffffffffffffffffffffffffffffff021916908373ffffffffffffffffffffffffffffffffffffffff1602179055505050506004600b60007317f6ad8ef982297579c203069c1dbffe4348c37273ffffffffffffffffffffffffffffffffffffffff1673ffffffffffffffffffffffffffffffffffffffff168152602001908152602001600020819055507317f6ad8ef982297579c203069c1dbffe4348c3726014600062054f09815260200190815260200160002060006101000a81548173ffffffffffffffffffffffffffffffffffffffff021916908373ffffffffffffffffffffffffffffffffffffffff16021790555060036040518060600160405280604051806060016040528060268152602001620063ec60269139815260200162054f1863ffffffff168152602001735c6b0f7bf3e7ce046039bd8fabdfd3f9f502167873ffffffffffffffffffffffffffffffffffffffff1681525090806001815401808255809150509060018203906000526020600020906002020160009091929091909150600082015181600001908051906020019062000e9092919062001762565b5060208201518160010160006101000a81548163ffffffff021916908363ffffffff16021790555060408201518160010160046101000a81548173ffffffffffffffffffffffffffffffffffffffff021916908373ffffffffffffffffffffffffffffffffffffffff1602179055505050506004600b6000735c6b0f7bf3e7ce046039bd8fabdfd3f9f502167873ffffffffffffffffffffffffffffffffffffffff1673ffffffffffffffffffffffffffffffffffffffff16815260200190815260200160002081905550735c6b0f7bf3e7ce046039bd8fabdfd3f9f50216786014600062054f18815260200190815260200160002060006101000a81548173ffffffffffffffffffffffffffffffffffffffff021916908373ffffffffffffffffffffffffffffffffffffffff160217905550600360405180606001604052806040518060600160405280603c815260200162006412603c913981526020016205492063ffffffff1681526020017303c6fced478cbbc9a4fab34ef9f40767739d1ff773ffffffffffffffffffffffffffffffffffffffff168152509080600181540180825580915050906001820390600052602060002090600202016000909192909190915060008201518160000190805190602001906200107692919062001762565b5060208201518160010160006101000a81548163ffffffff021916908363ffffffff16021790555060408201518160010160046101000a81548173ffffffffffffffffffffffffffffffffffffffff021916908373ffffffffffffffffffffffffffffffffffffffff1602179055505050506004600b60007303c6fced478cbbc9a4fab34ef9f40767739d1ff773ffffffffffffffffffffffffffffffffffffffff1673ffffffffffffffffffffffffffffffffffffffff168152602001908152602001600020819055507303c6fced478cbbc9a4fab34ef9f40767739d1ff76014600062054920815260200190815260200160002060006101000a81548173ffffffffffffffffffffffffffffffffffffffff021916908373ffffffffffffffffffffffffffffffffffffffff160217905550600360405180606001604052806040518060600160405280602e8152602001620064a2602e913981526020016205493863ffffffff168152602001731ae0ea34a72d944a8c7603ffb3ec30a6669e454c73ffffffffffffffffffffffffffffffffffffffff168152509080600181540180825580915050906001820390600052602060002090600202016000909192909190915060008201518160000190805190602001906200125c92919062001762565b5060208201518160010160006101000a81548163ffffffff021916908363ffffffff16021790555060408201518160010160046101000a81548173ffffffffffffffffffffffffffffffffffffffff021916908373ffffffffffffffffffffffffffffffffffffffff1602179055505050506004600b6000731ae0ea34a72d944a8c7603ffb3ec30a6669e454c73ffffffffffffffffffffffffffffffffffffffff1673ffffffffffffffffffffffffffffffffffffffff16815260200190815260200160002081905550731ae0ea34a72d944a8c7603ffb3ec30a6669e454c6014600062054938815260200190815260200160002060006101000a81548173ffffffffffffffffffffffffffffffffffffffff021916908373ffffffffffffffffffffffffffffffffffffffff160217905550600360405180606001604052806040518060600160405280602e8152602001620063be602e913981526020016205492e63ffffffff168152602001730a098eda01ce92ff4a4ccb7a4fffb5a43ebc70dc73ffffffffffffffffffffffffffffffffffffffff168152509080600181540180825580915050906001820390600052602060002090600202016000909192909190915060008201518160000190805190602001906200144292919062001762565b5060208201518160010160006101000a81548163ffffffff021916908363ffffffff16021790555060408201518160010160046101000a81548173ffffffffffffffffffffffffffffffffffffffff021916908373ffffffffffffffffffffffffffffffffffffffff1602179055505050506004600b6000730a098eda01ce92ff4a4ccb7a4fffb5a43ebc70dc73ffffffffffffffffffffffffffffffffffffffff1673ffffffffffffffffffffffffffffffffffffffff16815260200190815260200160002081905550730a098eda01ce92ff4a4ccb7a4fffb5a43ebc70dc601460006205492e815260200190815260200160002060006101000a81548173ffffffffffffffffffffffffffffffffffffffff021916908373ffffffffffffffffffffffffffffffffffffffff160217905550600360405180606001604052806040518060600160405280602e815260200162006474602e913981526020016205495063ffffffff16815260200173ca35b7d915458ef540ade6068dfe2f44e8fa733c73ffffffffffffffffffffffffffffffffffffffff168152509080600181540180825580915050906001820390600052602060002090600202016000909192909190915060008201518160000190805190602001906200162892919062001762565b5060208201518160010160006101000a81548163ffffffff021916908363ffffffff16021790555060408201518160010160046101000a81548173ffffffffffffffffffffffffffffffffffffffff021916908373ffffffffffffffffffffffffffffffffffffffff1602179055505050506004600b600073ca35b7d915458ef540ade6068dfe2f44e8fa733c73ffffffffffffffffffffffffffffffffffffffff1673ffffffffffffffffffffffffffffffffffffffff1681526020019081526020016000208190555073ca35b7d915458ef540ade6068dfe2f44e8fa733c6014600062054950815260200190815260200160002060006101000a81548173ffffffffffffffffffffffffffffffffffffffff021916908373ffffffffffffffffffffffffffffffffffffffff16021790555062001811565b828054600181600116156101000203166002900490600052602060002090601f016020900481019282601f10620017a557805160ff1916838001178555620017d6565b82800160010185558215620017d6579182015b82811115620017d5578251825591602001919060010190620017b8565b5b509050620017e59190620017e9565b5090565b6200180e91905b808211156200180a576000816000905550600101620017f0565b5090565b90565b614b4480620018216000396000f3fe6080604052600436106101145760003560e01c8063596611fd116100a0578063ae77ed0511610064578063ae77ed0514611027578063cbd07c1e14611186578063dc046d6b146111b4578063eccecd02146111df578063fd895292146112a757610114565b8063596611fd14610c8657806365aa4b0d14610d41578063688fb98114610e13578063804de12914610edb5780638da375d914610f4b57610114565b806334be1cab116100e757806334be1cab146105ac578063360e7498146106675780633ac172dd1461096757806341cdd474146109b557806345bc66b814610a7057610114565b80631188648d14610119578063159bcc38146102985780631b50aa3b146103e3578063274fae7c1461057e575b600080fd5b34801561012557600080fd5b506102966004803603606081101561013c57600080fd5b81019080803573ffffffffffffffffffffffffffffffffffffffff1690602001909291908035906020019064010000000081111561017957600080fd5b82018360208201111561018b57600080fd5b803590602001918460018302840111640100000000831117156101ad57600080fd5b91908080601f016020809104026020016040519081016040528093929190818152602001838380828437600081840152601f19601f8201169050808301925050505050505091929192908035906020019064010000000081111561021057600080fd5b82018360208201111561022257600080fd5b8035906020019184600183028401116401000000008311171561024457600080fd5b91908080601f016020809104026020016040519081016040528093929190818152602001838380828437600081840152601f19601f8201169050808301925050505050505091929192905050506112be565b005b3480156102a457600080fd5b506102d1600480360360208110156102bb57600080fd5b81019080803590602001909291905050506115a9565b6040518088815260200187815260200186815260200180602001806020018515151515815260200184151515158152602001838103835287818151815260200191508051906020019080838360005b8381101561033b578082015181840152602081019050610320565b50505050905090810190601f1680156103685780820380516001836020036101000a031916815260200191505b50838103825286818151815260200191508051906020019080838360005b838110156103a1578082015181840152602081019050610386565b50505050905090810190601f1680156103ce5780820380516001836020036101000a031916815260200191505b50995050505050505050505060405180910390f35b3480156103ef57600080fd5b5061041c6004803603602081101561040657600080fd5b81019080803590602001909291905050506117f6565b60405180806020018873ffffffffffffffffffffffffffffffffffffffff1673ffffffffffffffffffffffffffffffffffffffff1681526020018773ffffffffffffffffffffffffffffffffffffffff1673ffffffffffffffffffffffffffffffffffffffff1681526020018060200186815260200185815260200184815260200183810383528a818151815260200191508051906020019080838360005b838110156104d65780820151818401526020810190506104bb565b50505050905090810190601f1680156105035780820380516001836020036101000a031916815260200191505b50838103825287818151815260200191508051906020019080838360005b8381101561053c578082015181840152602081019050610521565b50505050905090810190601f1680156105695780820380516001836020036101000a031916815260200191505b50995050505050505050505060405180910390f35b6105aa6004803603602081101561059457600080fd5b8101908080359060200190929190505050611a70565b005b610665600480360360208110156105c257600080fd5b81019080803590602001906401000000008111156105df57600080fd5b8201836020820111156105f157600080fd5b8035906020019184600183028401116401000000008311171561061357600080fd5b91908080601f016020809104026020016040519081016040528093929190818152602001838380828437600081840152601f19601f820116905080830192505050505050509192919290505050611bf5565b005b34801561067357600080fd5b50610965600480360361016081101561068b57600080fd5b81019080803590602001906401000000008111156106a857600080fd5b8201836020820111156106ba57600080fd5b803590602001918460018302840111640100000000831117156106dc57600080fd5b91908080601f016020809104026020016040519081016040528093929190818152602001838380828437600081840152601f19601f820116905080830192505050505050509192919290803573ffffffffffffffffffffffffffffffffffffffff169060200190929190803573ffffffffffffffffffffffffffffffffffffffff16906020019092919080359060200190929190803590602001909291908035906020019064010000000081111561079357600080fd5b8201836020820111156107a557600080fd5b803590602001918460018302840111640100000000831117156107c757600080fd5b91908080601f016020809104026020016040519081016040528093929190818152602001838380828437600081840152601f19601f8201169050808301925050505050505091929192908035906020019092919080359060200190929190803590602001909291908035906020019064010000000081111561084857600080fd5b82018360208201111561085a57600080fd5b8035906020019184600183028401116401000000008311171561087c57600080fd5b91908080601f016020809104026020016040519081016040528093929190818152602001838380828437600081840152601f19601f820116905080830192505050505050509192919290803590602001906401000000008111156108df57600080fd5b8201836020820111156108f157600080fd5b8035906020019184600183028401116401000000008311171561091357600080fd5b91908080601f016020809104026020016040519081016040528093929190818152602001838380828437600081840152601f19601f820116905080830192505050505050509192919290505050611f73565b005b6109b36004803603604081101561097d57600080fd5b81019080803573ffffffffffffffffffffffffffffffffffffffff169060200190929190803590602001909291905050506124c9565b005b610a6e600480360360208110156109cb57600080fd5b81019080803590602001906401000000008111156109e857600080fd5b8201836020820111156109fa57600080fd5b80359060200191846001830284011164010000000083111715610a1c57600080fd5b91908080601f016020809104026020016040519081016040528093929190818152602001838380828437600081840152601f19601f820116905080830192505050505050509192919290505050612613565b005b348015610a7c57600080fd5b50610c8460048036036080811015610a9357600080fd5b81019080803573ffffffffffffffffffffffffffffffffffffffff16906020019092919080359060200190640100000000811115610ad057600080fd5b820183602082011115610ae257600080fd5b80359060200191846001830284011164010000000083111715610b0457600080fd5b91908080601f016020809104026020016040519081016040528093929190818152602001838380828437600081840152601f19601f82011690508083019250505050505050919291929080359060200190640100000000811115610b6757600080fd5b820183602082011115610b7957600080fd5b80359060200191846001830284011164010000000083111715610b9b57600080fd5b91908080601f016020809104026020016040519081016040528093929190818152602001838380828437600081840152601f19601f82011690508083019250505050505050919291929080359060200190640100000000811115610bfe57600080fd5b820183602082011115610c1057600080fd5b80359060200191846001830284011164010000000083111715610c3257600080fd5b91908080601f016020809104026020016040519081016040528093929190818152602001838380828437600081840152601f19601f820116905080830192505050505050509192919290505050612dae565b005b610d3f60048036036020811015610c9c57600080fd5b8101908080359060200190640100000000811115610cb957600080fd5b820183602082011115610ccb57600080fd5b80359060200191846001830284011164010000000083111715610ced57600080fd5b91908080601f016020809104026020016040519081016040528093929190818152602001838380828437600081840152601f19601f8201169050808301925050505050505091929192905050506130f7565b005b348015610d4d57600080fd5b50610e1160048036036040811015610d6457600080fd5b8101908080359060200190640100000000811115610d8157600080fd5b820183602082011115610d9357600080fd5b80359060200191846001830284011164010000000083111715610db557600080fd5b91908080601f016020809104026020016040519081016040528093929190818152602001838380828437600081840152601f19601f8201169050808301925050505050505091929192908035906020019092919050505061330e565b005b348015610e1f57600080fd5b50610ed960048036036020811015610e3657600080fd5b8101908080359060200190640100000000811115610e5357600080fd5b820183602082011115610e6557600080fd5b80359060200191846001830284011164010000000083111715610e8757600080fd5b91908080601f016020809104026020016040519081016040528093929190818152602001838380828437600081840152601f19601f820116905080830192505050505050509192919290505050613427565b005b348015610ee757600080fd5b50610f1460048036036020811015610efe57600080fd5b8101908080359060200190929190505050613d27565b6040518085815260200184151515158152602001831515151581526020018215151515815260200194505050505060405180910390f35b348015610f5757600080fd5b5061102560048036036060811015610f6e57600080fd5b8101908080359060200190640100000000811115610f8b57600080fd5b820183602082011115610f9d57600080fd5b80359060200191846001830284011164010000000083111715610fbf57600080fd5b91908080601f016020809104026020016040519081016040528093929190818152602001838380828437600081840152601f19601f8201169050808301925050505050505091929192908035906020019092919080359060200190929190505050613ddf565b005b34801561103357600080fd5b506111846004803603604081101561104a57600080fd5b810190808035906020019064010000000081111561106757600080fd5b82018360208201111561107957600080fd5b8035906020019184600183028401116401000000008311171561109b57600080fd5b91908080601f016020809104026020016040519081016040528093929190818152602001838380828437600081840152601f19601f820116905080830192505050505050509192919290803590602001906401000000008111156110fe57600080fd5b82018360208201111561111057600080fd5b8035906020019184600183028401116401000000008311171561113257600080fd5b91908080601f016020809104026020016040519081016040528093929190818152602001838380828437600081840152601f19601f820116905080830192505050505050509192919290505050614214565b005b6111b26004803603602081101561119c57600080fd5b810190808035906020019092919050505061442f565b005b3480156111c057600080fd5b506111c96145b4565b6040518082815260200191505060405180910390f35b3480156111eb57600080fd5b506112a56004803603602081101561120257600080fd5b810190808035906020019064010000000081111561121f57600080fd5b82018360208201111561123157600080fd5b8035906020019184600183028401116401000000008311171561125357600080fd5b91908080601f016020809104026020016040519081016040528093929190818152602001838380828437600081840152601f19601f8201169050808301925050505050505091929192905050506145ba565b005b3480156112b357600080fd5b506112bc61491b565b005b600960009054906101000a900473ffffffffffffffffffffffffffffffffffffffff1673ffffffffffffffffffffffffffffffffffffffff163373ffffffffffffffffffffffffffffffffffffffff1614611364576040517f08c379a0000000000000000000000000000000000000000000000000000000008152600401808060200182810382526023815260200180614aa86023913960400191505060405180910390fd5b6000600b60008573ffffffffffffffffffffffffffffffffffffffff1673ffffffffffffffffffffffffffffffffffffffff16815260200190815260200160002054146113fc576040517f08c379a0000000000000000000000000000000000000000000000000000000008152600401808060200182810382526045815260200180614acb6045913960600191505060405180910390fd5b60016040518060a001604052808573ffffffffffffffffffffffffffffffffffffffff1681526020018481526020018381526020016040518060400160405280601a81526020017fd090d0b4d0bcd0b8d0bdd0b8d181d182d180d0b0d182d0bed1800000000000008152508152602001600015158152509080600181540180825580915050906001820390600052602060002090600502016000909192909190915060008201518160000160006101000a81548173ffffffffffffffffffffffffffffffffffffffff021916908373ffffffffffffffffffffffffffffffffffffffff1602179055506020820151816001019080519060200190611501929190614925565b50604082015181600201908051906020019061151e929190614925565b50606082015181600301908051906020019061153b929190614925565b5060808201518160040160006101000a81548160ff0219169083151502179055505050506001600b60008573ffffffffffffffffffffffffffffffffffffffff1673ffffffffffffffffffffffffffffffffffffffff16815260200190815260200160002081905550505050565b6000806000606080600080600488815481106115c157fe5b90600052602060002090600e020160070154600489815481106115e057fe5b90600052602060002090600e02016008015460048a815481106115ff57fe5b90600052602060002090600e02016009015460048b8154811061161e57fe5b90600052602060002090600e0201600a0160048c8154811061163c57fe5b90600052602060002090600e0201600b0160048d8154811061165a57fe5b90600052602060002090600e0201600d0160009054906101000a900460ff1660048e8154811061168657fe5b90600052602060002090600e0201600d0160019054906101000a900460ff16838054600181600116156101000203166002900480601f01602080910402602001604051908101604052809291908181526020018280546001816001161561010002031660029004801561173a5780601f1061170f5761010080835404028352916020019161173a565b820191906000526020600020905b81548152906001019060200180831161171d57829003601f168201915b50505050509350828054600181600116156101000203166002900480601f0160208091040260200160405190810160405280929190818152602001828054600181600116156101000203166002900480156117d65780601f106117ab576101008083540402835291602001916117d6565b820191906000526020600020905b8154815290600101906020018083116117b957829003601f168201915b505050505092509650965096509650965096509650919395979092949650565b6060600080606060008060006004888154811061180f57fe5b90600052602060002090600e02016000016004898154811061182d57fe5b90600052602060002090600e020160010160009054906101000a900473ffffffffffffffffffffffffffffffffffffffff1660048a8154811061186c57fe5b90600052602060002090600e020160020160009054906101000a900473ffffffffffffffffffffffffffffffffffffffff1660048b815481106118ab57fe5b90600052602060002090600e020160030160048c815481106118c957fe5b90600052602060002090600e02016004015460048d815481106118e857fe5b90600052602060002090600e02016005015460048e8154811061190757fe5b90600052602060002090600e020160060154868054600181600116156101000203166002900480601f0160208091040260200160405190810160405280929190818152602001828054600181600116156101000203166002900480156119ae5780601f10611983576101008083540402835291602001916119ae565b820191906000526020600020905b81548152906001019060200180831161199157829003601f168201915b50505050509650859550849450838054600181600116156101000203166002900480601f016020809104026020016040519081016040528092919081815260200182805460018160011615610100020316600290048015611a505780601f10611a2557610100808354040283529160200191611a50565b820191906000526020600020905b815481529060010190602001808311611a3357829003601f168201915b505050505093509650965096509650965096509650919395979092949650565b60058181548110611a7d57fe5b906000526020600020906004020160010160009054906101000a900473ffffffffffffffffffffffffffffffffffffffff1673ffffffffffffffffffffffffffffffffffffffff163373ffffffffffffffffffffffffffffffffffffffff1614611b4f576040517f08c379a000000000000000000000000000000000000000000000000000000000815260040180806020018281038252601a8152602001807fd094d0b5d0bdd0b5d0b6d0bad0b820d0bdd0b520d0b2d0b0d0bc00000000000081525060200191505060405180910390fd5b60058181548110611b5c57fe5b906000526020600020906004020160010160009054906101000a900473ffffffffffffffffffffffffffffffffffffffff1673ffffffffffffffffffffffffffffffffffffffff166108fc60058381548110611bb457fe5b9060005260206000209060040201600201549081150290604051600060405180830381858888f19350505050158015611bf1573d6000803e3d6000fd5b5050565b6001151560046010836040518082805190602001908083835b60208310611c315780518252602082019150602081019050602083039250611c0e565b6001836020036101000a03801982511681845116808217855250505050505090500191505090815260200160405180910390205481548110611c6f57fe5b90600052602060002090600e0201600d0160019054906101000a900460ff16151514611c9a57600080fd5b60046010826040518082805190602001908083835b60208310611cd25780518252602082019150602081019050602083039250611caf565b6001836020036101000a03801982511681845116808217855250505050505090500191505090815260200160405180910390205481548110611d1057fe5b90600052602060002090600e020160020160009054906101000a900473ffffffffffffffffffffffffffffffffffffffff1673ffffffffffffffffffffffffffffffffffffffff163373ffffffffffffffffffffffffffffffffffffffff1614611d7957600080fd5b6013816040518082805190602001908083835b60208310611daf5780518252602082019150602081019050602083039250611d8c565b6001836020036101000a038019825116818451168082178552505050505050905001915050908152602001604051809103902060009054906101000a900473ffffffffffffffffffffffffffffffffffffffff1673ffffffffffffffffffffffffffffffffffffffff166108fc60046010846040518082805190602001908083835b60208310611e545780518252602082019150602081019050602083039250611e31565b6001836020036101000a03801982511681845116808217855250505050505090500191505090815260200160405180910390205481548110611e9257fe5b90600052602060002090600e0201600901549081150290604051600060405180830381858888f19350505050158015611ecf573d6000803e3d6000fd5b50600160046010836040518082805190602001908083835b60208310611f0a5780518252602082019150602081019050602083039250611ee7565b6001836020036101000a03801982511681845116808217855250505050505090500191505090815260200160405180910390205481548110611f4857fe5b90600052602060002090600e0201600d0160026101000a81548160ff02191690831515021790555050565b60086000815480929190600101919050555060076000815480929190600101919050555060046040518061024001604052808d81526020018c73ffffffffffffffffffffffffffffffffffffffff1681526020018b73ffffffffffffffffffffffffffffffffffffffff16815260200188815260200187815260200160058089020181526020018760020260070381526020018681526020018581526020016002860287896002026007030201815260200184815260200183815260200160008152602001600015158152602001600015158152602001600015158152602001600015158152602001600015158152509080600181540180825580915050906001820390600052602060002090600e02016000909192909190915060008201518160000190805190602001906120aa929190614925565b5060208201518160010160006101000a81548173ffffffffffffffffffffffffffffffffffffffff021916908373ffffffffffffffffffffffffffffffffffffffff16021790555060408201518160020160006101000a81548173ffffffffffffffffffffffffffffffffffffffff021916908373ffffffffffffffffffffffffffffffffffffffff1602179055506060820151816003019080519060200190612155929190614925565b506080820151816004015560a0820151816005015560c0820151816006015560e082015181600701556101008201518160080155610120820151816009015561014082015181600a0190805190602001906121b1929190614925565b5061016082015181600b0190805190602001906121cf929190614925565b5061018082015181600c01556101a082015181600d0160006101000a81548160ff0219169083151502179055506101c082015181600d0160016101000a81548160ff0219169083151502179055506101e082015181600d0160026101000a81548160ff02191690831515021790555061020082015181600d0160036101000a81548160ff02191690831515021790555061022082015181600d0160046101000a81548160ff02191690831515021790555050505060016004805490500360108c6040518082805190602001908083835b602083106122c2578051825260208201915060208101905060208303925061229f565b6001836020036101000a0380198251168184511680821785525050505050509050019150509081526020016040518091039020819055506014600089815260200190815260200160002060009054906101000a900473ffffffffffffffffffffffffffffffffffffffff1660138c6040518082805190602001908083835b602083106123635780518252602082019150602081019050602083039250612340565b6001836020036101000a038019825116818451168082178552505050505050905001915050908152602001604051809103902060006101000a81548173ffffffffffffffffffffffffffffffffffffffff021916908373ffffffffffffffffffffffffffffffffffffffff16021790555086600f8c6040518082805190602001908083835b6020831061240b57805182526020820191506020810190506020830392506123e8565b6001836020036101000a03801982511681845116808217855250505050505090500191505090815260200160405180910390208190555062015180600580870201024201600d8c6040518082805190602001908083835b602083106124855780518252602082019150602081019050602083039250612462565b6001836020036101000a0380198251168184511680821785525050505050509050019150509081526020016040518091039020819055505050505050505050505050565b600560405180608001604052803373ffffffffffffffffffffffffffffffffffffffff1681526020018473ffffffffffffffffffffffffffffffffffffffff168152602001348152602001838152509080600181540180825580915050906001820390600052602060002090600402016000909192909190915060008201518160000160006101000a81548173ffffffffffffffffffffffffffffffffffffffff021916908373ffffffffffffffffffffffffffffffffffffffff16021790555060208201518160010160006101000a81548173ffffffffffffffffffffffffffffffffffffffff021916908373ffffffffffffffffffffffffffffffffffffffff16021790555060408201518160020155606082015181600301555050506201518081024201601160006001600580549050038152602001908152602001600020819055505050565b42600d826040518082805190602001908083835b6020831061264a5780518252602082019150602081019050602083039250612627565b6001836020036101000a038019825116818451168082178552505050505050905001915050908152602001604051809103902054106126f1576040517f08c379a00000000000000000000000000000000000000000000000000000000081526004018080602001828103825260108152602001807f54696d65206973206e6f74206f7665720000000000000000000000000000000081525060200191505060405180910390fd5b600160046010836040518082805190602001908083835b6020831061272b5780518252602082019150602081019050602083039250612708565b6001836020036101000a0380198251168184511680821785525050505050509050019150509081526020016040518091039020548154811061276957fe5b90600052602060002090600e0201600d0160046101000a81548160ff021916908315150217905550600160046010836040518082805190602001908083835b602083106127cb57805182526020820191506020810190506020830392506127a8565b6001836020036101000a0380198251168184511680821785525050505050509050019150509081526020016040518091039020548154811061280957fe5b90600052602060002090600e020160040154141561299b5760046010826040518082805190602001908083835b602083106128595780518252602082019150602081019050602083039250612836565b6001836020036101000a0380198251168184511680821785525050505050509050019150509081526020016040518091039020548154811061289757fe5b90600052602060002090600e020160010160009054906101000a900473ffffffffffffffffffffffffffffffffffffffff1673ffffffffffffffffffffffffffffffffffffffff166108fc60046010846040518082805190602001908083835b6020831061291a57805182526020820191506020810190506020830392506128f7565b6001836020036101000a0380198251168184511680821785525050505050509050019150509081526020016040518091039020548154811061295857fe5b90600052602060002090600e0201600901549081150290604051600060405180830381858888f19350505050158015612995573d6000803e3d6000fd5b50612dab565b600260046010836040518082805190602001908083835b602083106129d557805182526020820191506020810190506020830392506129b2565b6001836020036101000a03801982511681845116808217855250505050505090500191505090815260200160405180910390205481548110612a1357fe5b90600052602060002090600e0201600401541415612c345760046010826040518082805190602001908083835b60208310612a635780518252602082019150602081019050602083039250612a40565b6001836020036101000a03801982511681845116808217855250505050505090500191505090815260200160405180910390205481548110612aa157fe5b90600052602060002090600e020160010160009054906101000a900473ffffffffffffffffffffffffffffffffffffffff1673ffffffffffffffffffffffffffffffffffffffff166108fc600260046010856040518082805190602001908083835b60208310612b265780518252602082019150602081019050602083039250612b03565b6001836020036101000a03801982511681845116808217855250505050505090500191505090815260200160405180910390205481548110612b6457fe5b90600052602060002090600e02016008015402600560046010866040518082805190602001908083835b60208310612bb15780518252602082019150602081019050602083039250612b8e565b6001836020036101000a03801982511681845116808217855250505050505090500191505090815260200160405180910390205481548110612bef57fe5b90600052602060002090600e02016006015402019081150290604051600060405180830381858888f19350505050158015612c2e573d6000803e3d6000fd5b50612daa565b60046010826040518082805190602001908083835b60208310612c6c5780518252602082019150602081019050602083039250612c49565b6001836020036101000a03801982511681845116808217855250505050505090500191505090815260200160405180910390205481548110612caa57fe5b90600052602060002090600e020160010160009054906101000a900473ffffffffffffffffffffffffffffffffffffffff1673ffffffffffffffffffffffffffffffffffffffff166108fc60046010846040518082805190602001908083835b60208310612d2d5780518252602082019150602081019050602083039250612d0a565b6001836020036101000a03801982511681845116808217855250505050505090500191505090815260200160405180910390205481548110612d6b57fe5b90600052602060002090600e0201600801549081150290604051600060405180830381858888f19350505050158015612da8573d6000803e3d6000fd5b505b5b50565b6001600b60003373ffffffffffffffffffffffffffffffffffffffff1673ffffffffffffffffffffffffffffffffffffffff1681526020019081526020016000205414612e63576040517f08c379a00000000000000000000000000000000000000000000000000000000081526004018080602001828103825260148152602001807fd092d18b20d0bdd0b520d0b0d0b4d0bcd0b8d0bd00000000000000000000000081525060200191505060405180910390fd5b6000600b60008673ffffffffffffffffffffffffffffffffffffffff1673ffffffffffffffffffffffffffffffffffffffff1681526020019081526020016000205414612efb576040517f08c379a0000000000000000000000000000000000000000000000000000000008152600401808060200182810382526045815260200180614acb6045913960600191505060405180910390fd5b60026040518060a001604052808673ffffffffffffffffffffffffffffffffffffffff1681526020018581526020018481526020016040518060400160405280601281526020017fd0a1d0bed182d180d183d0b4d0bdd0b8d0ba00000000000000000000000000008152508152602001838152509080600181540180825580915050906001820390600052602060002090600502016000909192909190915060008201518160000160006101000a81548173ffffffffffffffffffffffffffffffffffffffff021916908373ffffffffffffffffffffffffffffffffffffffff1602179055506020820151816001019080519060200190612ffd929190614925565b50604082015181600201908051906020019061301a929190614925565b506060820151816003019080519060200190613037929190614925565b506080820151816004019080519060200190613054929190614925565b505050506002600b60008673ffffffffffffffffffffffffffffffffffffffff1673ffffffffffffffffffffffffffffffffffffffff1681526020019081526020016000208190555082600c60008673ffffffffffffffffffffffffffffffffffffffff1673ffffffffffffffffffffffffffffffffffffffff16815260200190815260200160002090805190602001906130f09291906149a5565b5050505050565b3373ffffffffffffffffffffffffffffffffffffffff1660046010836040518082805190602001908083835b602083106131465780518252602082019150602081019050602083039250613123565b6001836020036101000a0380198251168184511680821785525050505050509050019150509081526020016040518091039020548154811061318457fe5b90600052602060002090600e020160010160009054906101000a900473ffffffffffffffffffffffffffffffffffffffff1673ffffffffffffffffffffffffffffffffffffffff16146131d657600080fd5b600a60046010836040518082805190602001908083835b6020831061321057805182526020820191506020810190506020830392506131ed565b6001836020036101000a0380198251168184511680821785525050505050509050019150509081526020016040518091039020548154811061324e57fe5b90600052602060002090600e0201600901548161326757fe5b04341461327357600080fd5b6001151560046010836040518082805190602001908083835b602083106132af578051825260208201915060208101905060208303925061328c565b6001836020036101000a038019825116818451168082178552505050505050905001915050908152602001604051809103902054815481106132ed57fe5b90600052602060002090600e0201600d0160009054906101000a9050505050565b42600e836040518082805190602001908083835b602083106133455780518252602082019150602081019050602083039250613322565b6001836020036101000a038019825116818451168082178552505050505050905001915050908152602001604051809103902054106133ec576040517f08c379a00000000000000000000000000000000000000000000000000000000081526004018080602001828103825260148152602001807f54696d6520646f206e6f7420636f6d652079657400000000000000000000000081525060200191505060405180910390fd5b6001600482815481106133fb57fe5b90600052602060002090600e0201600d0160026101000a81548160ff0219169083151502179055505050565b6001151560046010836040518082805190602001908083835b602083106134635780518252602082019150602081019050602083039250613440565b6001836020036101000a038019825116818451168082178552505050505050905001915050908152602001604051809103902054815481106134a157fe5b90600052602060002090600e0201600d0160019054906101000a900460ff161515146134cc57600080fd5b60046010826040518082805190602001908083835b6020831061350457805182526020820191506020810190506020830392506134e1565b6001836020036101000a0380198251168184511680821785525050505050509050019150509081526020016040518091039020548154811061354257fe5b90600052602060002090600e020160020160009054906101000a900473ffffffffffffffffffffffffffffffffffffffff1673ffffffffffffffffffffffffffffffffffffffff163373ffffffffffffffffffffffffffffffffffffffff16146135ab57600080fd5b6001151560046010836040518082805190602001908083835b602083106135e757805182526020820191506020810190506020830392506135c4565b6001836020036101000a0380198251168184511680821785525050505050509050019150509081526020016040518091039020548154811061362557fe5b90600052602060002090600e0201600d0160039054906101000a900460ff1615151415613c84576001151560046010836040518082805190602001908083835b602083106136885780518252602082019150602081019050602083039250613665565b6001836020036101000a038019825116818451168082178552505050505050905001915050908152602001604051809103902054815481106136c657fe5b90600052602060002090600e0201600d0160049054906101000a900460ff1615151415613b0d57600260046010836040518082805190602001908083835b602083106137275780518252602082019150602081019050602083039250613704565b6001836020036101000a0380198251168184511680821785525050505050509050019150509081526020016040518091039020548154811061376557fe5b90600052602060002090600e02016004015414156139015760046010826040518082805190602001908083835b602083106137b55780518252602082019150602081019050602083039250613792565b6001836020036101000a038019825116818451168082178552505050505050905001915050908152602001604051809103902054815481106137f357fe5b90600052602060002090600e020160010160009054906101000a900473ffffffffffffffffffffffffffffffffffffffff1673ffffffffffffffffffffffffffffffffffffffff166108fc600260046010856040518082805190602001908083835b602083106138785780518252602082019150602081019050602083039250613855565b6001836020036101000a038019825116818451168082178552505050505050905001915050908152602001604051809103902054815481106138b657fe5b90600052602060002090600e020160060154816138cf57fe5b049081150290604051600060405180830381858888f193505050501580156138fb573d6000803e3d6000fd5b50613b08565b600360046010836040518082805190602001908083835b6020831061393b5780518252602082019150602081019050602083039250613918565b6001836020036101000a0380198251168184511680821785525050505050509050019150509081526020016040518091039020548154811061397957fe5b90600052602060002090600e0201600401541415613b075760046010826040518082805190602001908083835b602083106139c957805182526020820191506020810190506020830392506139a6565b6001836020036101000a03801982511681845116808217855250505050505090500191505090815260200160405180910390205481548110613a0757fe5b90600052602060002090600e020160010160009054906101000a900473ffffffffffffffffffffffffffffffffffffffff1673ffffffffffffffffffffffffffffffffffffffff166108fc60046010846040518082805190602001908083835b60208310613a8a5780518252602082019150602081019050602083039250613a67565b6001836020036101000a03801982511681845116808217855250505050505090500191505090815260200160405180910390205481548110613ac857fe5b90600052602060002090600e0201600601549081150290604051600060405180830381858888f19350505050158015613b05573d6000803e3d6000fd5b505b5b613c83565b60046010826040518082805190602001908083835b60208310613b455780518252602082019150602081019050602083039250613b22565b6001836020036101000a03801982511681845116808217855250505050505090500191505090815260200160405180910390205481548110613b8357fe5b90600052602060002090600e020160010160009054906101000a900473ffffffffffffffffffffffffffffffffffffffff1673ffffffffffffffffffffffffffffffffffffffff166108fc60046010846040518082805190602001908083835b60208310613c065780518252602082019150602081019050602083039250613be3565b6001836020036101000a03801982511681845116808217855250505050505090500191505090815260200160405180910390205481548110613c4457fe5b90600052602060002090600e0201600901549081150290604051600060405180830381858888f19350505050158015613c81573d6000803e3d6000fd5b505b5b600160046010836040518082805190602001908083835b60208310613cbe5780518252602082019150602081019050602083039250613c9b565b6001836020036101000a03801982511681845116808217855250505050505090500191505090815260200160405180910390205481548110613cfc57fe5b90600052602060002090600e0201600d0160026101000a81548160ff02191690831515021790555050565b60008060008060048581548110613d3a57fe5b90600052602060002090600e0201600c015460048681548110613d5957fe5b90600052602060002090600e0201600d0160029054906101000a900460ff1660048781548110613d8557fe5b90600052602060002090600e0201600d0160039054906101000a900460ff1660048881548110613db157fe5b90600052602060002090600e0201600d0160049054906101000a900460ff1693509350935093509193509193565b6002600b60003373ffffffffffffffffffffffffffffffffffffffff1673ffffffffffffffffffffffffffffffffffffffff1681526020019081526020016000205414613e77576040517f08c379a0000000000000000000000000000000000000000000000000000000008152600401808060200182810382526031815260200180614a776031913960400191505060405180910390fd5b60066040518060800160405280600c60003373ffffffffffffffffffffffffffffffffffffffff1673ffffffffffffffffffffffffffffffffffffffff1681526020019081526020016000208054600181600116156101000203166002900480601f016020809104026020016040519081016040528092919081815260200182805460018160011615610100020316600290048015613f575780601f10613f2c57610100808354040283529160200191613f57565b820191906000526020600020905b815481529060010190602001808311613f3a57829003601f168201915b5050505050815260200185815260200183815260200184815250908060018154018082558091505090600182039060005260206000209060040201600090919290919091506000820151816000019080519060200190613fb8929190614925565b506020820151816001019080519060200190613fd5929190614925565b506040820151816002015560608201518160030155505050600f836040518082805190602001908083835b602083106140235780518252602082019150602081019050602083039250614000565b6001836020036101000a03801982511681845116808217855250505050505090500191505090815260200160405180910390205482141561420f57600160046010856040518082805190602001908083835b602083106140985780518252602082019150602081019050602083039250614075565b6001836020036101000a038019825116818451168082178552505050505050905001915050908152602001604051809103902054815481106140d657fe5b90600052602060002090600e0201600d0160016101000a81548160ff0219169083151502179055508060046010856040518082805190602001908083835b602083106141375780518252602082019150602081019050602083039250614114565b6001836020036101000a0380198251168184511680821785525050505050509050019150509081526020016040518091039020548154811061417557fe5b90600052602060002090600e0201600c0181905550614193836145ba565b42600d846040518082805190602001908083835b602083106141ca57805182526020820191506020810190506020830392506141a7565b6001836020036101000a038019825116818451168082178552505050505050905001915050908152602001604051809103902054101561420e5761420d83612613565b5b5b505050565b6000600b60003373ffffffffffffffffffffffffffffffffffffffff1673ffffffffffffffffffffffffffffffffffffffff16815260200190815260200160002054146142ac576040517f08c379a000000000000000000000000000000000000000000000000000000000815260040180806020018281038252602c815260200180614a4b602c913960400191505060405180910390fd5b600060405180608001604052803373ffffffffffffffffffffffffffffffffffffffff1681526020018481526020018381526020016040518060400160405280601881526020017fd09fd0bed0bbd18cd0b7d0bed0b2d0b0d182d0b5d0bbd18c00000000000000008152508152509080600181540180825580915050906001820390600052602060002090600402016000909192909190915060008201518160000160006101000a81548173ffffffffffffffffffffffffffffffffffffffff021916908373ffffffffffffffffffffffffffffffffffffffff16021790555060208201518160010190805190602001906143a8929190614925565b5060408201518160020190805190602001906143c5929190614925565b5060608201518160030190805190602001906143e2929190614925565b505050506003600b60003373ffffffffffffffffffffffffffffffffffffffff1673ffffffffffffffffffffffffffffffffffffffff168152602001908152602001600020819055505050565b6005818154811061443c57fe5b906000526020600020906004020160010160009054906101000a900473ffffffffffffffffffffffffffffffffffffffff1673ffffffffffffffffffffffffffffffffffffffff163373ffffffffffffffffffffffffffffffffffffffff161461450e576040517f08c379a000000000000000000000000000000000000000000000000000000000815260040180806020018281038252601a8152602001807fd094d0b5d0bdd0b5d0b6d0bad0b820d0bdd0b520d0b2d0b0d0bc00000000000081525060200191505060405180910390fd5b6005818154811061451b57fe5b906000526020600020906004020160000160009054906101000a900473ffffffffffffffffffffffffffffffffffffffff1673ffffffffffffffffffffffffffffffffffffffff166108fc6005838154811061457357fe5b9060005260206000209060040201600201549081150290604051600060405180830381858888f193505050501580156145b0573d6000803e3d6000fd5b5050565b60075481565b6001151560046010836040518082805190602001908083835b602083106145f657805182526020820191506020810190506020830392506145d3565b6001836020036101000a0380198251168184511680821785525050505050509050019150509081526020016040518091039020548154811061463457fe5b90600052602060002090600e0201600d0160019054906101000a900460ff1615151461465f57600080fd5b621275004201600e826040518082805190602001908083835b6020831061469b5780518252602082019150602081019050602083039250614678565b6001836020036101000a038019825116818451168082178552505050505050905001915050908152602001604051809103902081905550600f60046010836040518082805190602001908083835b6020831061470c57805182526020820191506020810190506020830392506146e9565b6001836020036101000a0380198251168184511680821785525050505050509050019150509081526020016040518091039020548154811061474a57fe5b90600052602060002090600e02016007015402606460046010846040518082805190602001908083835b602083106147975780518252602082019150602081019050602083039250614774565b6001836020036101000a038019825116818451168082178552505050505050905001915050908152602001604051809103902054815481106147d557fe5b90600052602060002090600e0201600c015460046010856040518082805190602001908083835b6020831061481f57805182526020820191506020810190506020830392506147fc565b6001836020036101000a0380198251168184511680821785525050505050509050019150509081526020016040518091039020548154811061485d57fe5b90600052602060002090600e0201600701540302101561491857600160046010836040518082805190602001908083835b602083106148b1578051825260208201915060208101905060208303925061488e565b6001836020036101000a038019825116818451168082178552505050505050905001915050908152602001604051809103902054815481106148ef57fe5b90600052602060002090600e0201600d0160036101000a81548160ff0219169083151502179055505b50565b6000600881905550565b828054600181600116156101000203166002900490600052602060002090601f016020900481019282601f1061496657805160ff1916838001178555614994565b82800160010185558215614994579182015b82811115614993578251825591602001919060010190614978565b5b5090506149a19190614a25565b5090565b828054600181600116156101000203166002900490600052602060002090601f016020900481019282601f106149e657805160ff1916838001178555614a14565b82800160010185558215614a14579182015b82811115614a135782518255916020019190600101906149f8565b5b509050614a219190614a25565b5090565b614a4791905b80821115614a43576000816000905550600101614a2b565b5090565b9056fed092d18b20d183d0b6d0b520d0b7d0b0d180d0b5d0b3d0b8d181d182d180d0b8d180d0bed0b2d0b0d0bdd18bd092d18b20d0bdd0b520d18fd0b2d0bbd18fd0b5d182d0b5d181d18c20d180d0b0d0b1d0bed182d0bdd0b8d0bad0bed0bcd092d18b20d0bdd0b520d0b3d0bbd0b0d0b2d0bdd18bd0b920d0b0d0b4d0bcd0b8d0bdd090d0b4d0bcd0b8d0bd20d18120d0b4d0b0d0bdd0bdd18bd0bc20d0b0d0b4d180d0b5d181d0bed0bc20d183d0b6d0b520d181d183d189d0b5d181d182d0b2d183d0b5d182a265627a7a723158203b516912c92d081a93e415dfef30179adc5b62161518f6fec0d333aa26cf474364736f6c63430005100032d0a2d0b0d0b3d0b0d0bdd180d0bed0b32028d09fd0bed187d182d0b0d0bcd18220e284963129d0a2d0b0d0b3d0b0d0bdd180d0bed0b328d0b3d0bbd0b0d0b2d0bdd0bed0b520d0bed182d0b4d0b5d0bbd0b5d0bdd0b8d0b529d09dd0bed0b2d0bed187d0b5d180d0bad0b0d181d181d0ba2028d09fd0bed187d182d0b0d0bcd18220e284963229d0a2d0b0d0b3d0b0d0bdd180d0bed0b32028d09fd0bed187d182d0b0d0bcd18220e284963329d09dd0bed0b2d0bed187d0b5d180d0bad0b0d181d181d0ba2028d0b3d0bbd0b0d0b2d0bdd0bed0b520d0bed182d0b4d0b5d0bbd0b5d0bdd0b8d0b529d0a2d0b0d0b3d0b0d0bdd180d0bed0b32028d09fd0bed187d182d0b0d0bcd18220e284963229d09dd0bed0b2d0bed187d0b5d180d0bad0b0d181d181d0ba2028d09fd0bed187d182d0b0d0bcd18220e284963329d09dd0bed0b2d0bed187d0b5d180d0bad0b0d181d181d0ba2028d09fd0bed187d182d0b0d0bcd18220e284963129",
  "source": "pragma solidity <=0.7.0;\r\n//   256 \r\ncontract WorldSkills {\r\n    struct User {//\r\n        address adr;//solidity \r\n        string name;// \r\n        string homeadr;// \r\n        string role;//\r\n    }\r\n    struct Admin {// \r\n        address adr;//solidity \r\n        string name;// \r\n        string homeadr;// \r\n        string role;//\r\n        bool main;//   \r\n    }\r\n    struct Worker {//\r\n        address adr;//solidity \r\n        string name;// \r\n        string homeadr;// \r\n        string role;//\r\n        string id;//Id \r\n    }\r\n    struct Place {// \r\n        string name;\r\n        uint32 index;\r\n        address payable placeadr;\r\n    }\r\n    struct Mail {// \r\n        string trek;// \r\n        address payable mailsender;// solidity  \r\n        address payable mailreceiver;//solidity  \r\n        string mailtype;//  \r\n        uint class;// \r\n        uint time;//  \r\n        uint deliverycost;//  \r\n        uint weight;//  \r\n        uint decvalue;//  \r\n        uint fullcost;// \r\n        string sendadr;//   \r\n        string recadr;//  \r\n        uint finishweight;\r\n        bool paid; // \r\n        bool delivered;// \r\n        bool finished;// \r\n        bool weightdiff;//      \r\n        bool DeliveredLate;\r\n    }\r\n    struct Transfer {// \r\n        address payable sender;// solidity  \r\n        address payable receiver;//solidity  \r\n        uint sum;// \r\n        uint time;//    \r\n    }\r\n    struct Transit {//      \r\n        string worker;//     \r\n        string trek;\r\n        uint weight;\r\n        uint index;//   \r\n    }\r\n    User[] users;\r\n    Admin[] admins;\r\n    Worker[] workers;\r\n    Place[] places;\r\n    Mail[] mails;\r\n    Transfer[] transfers;\r\n    Transit[] transitpoints;\r\n    uint public globalMailCount = 0;\r\n    uint MailCount = 0;\r\n    address MainAdmin = msg.sender; //   \r\n    address defaultAdr = 0x0000000000000000000000000000000000000000;//  \r\n    mapping (address => uint) RoleCheck; //      \r\n    mapping (address => string) WorkAdrToName;//       \r\n    mapping (string => uint) TimeToDeliver;//        \r\n    mapping (string => uint) TimetoReceive;//        \r\n    mapping (string => uint) MailDestination; //  \r\n    mapping (string => uint) TrekToId;\r\n    mapping (uint => uint) TransferLifeTime;\r\n    mapping (uint => Mail[]) Mails;\r\n    mapping (string => address payable) AddressToPay;\r\n    mapping (uint => address payable) MailIndexToAddress;\r\n    constructor () public {\r\n        mails.push(Mail(\"22\", 0x0000000000000000000000000000000000000000, 0x0000000000000000000000000000000000000000, \"22\", 22, 22, 2, 2, 2,2, \"2\", \"2\",0,false,false,false,false,false));\r\n\r\n    admins.push(Admin(msg.sender, \"\", \" 85\", \" \", true));\r\n        places.push(Place(\"--\", 344000,0x4B20993Bc481177ec7E8f571ceCaE8A9e22C02db));RoleCheck[0x4B20993Bc481177ec7E8f571ceCaE8A9e22C02db] = 4;MailIndexToAddress[344000] = 0x4B20993Bc481177ec7E8f571ceCaE8A9e22C02db;\r\n        places.push(Place(\"( )\", 347900,0x78731D3Ca6b7E34aC0F824c42a7cC18A495cabaB));RoleCheck[0x78731D3Ca6b7E34aC0F824c42a7cC18A495cabaB] = 4;MailIndexToAddress[347900] = 0x78731D3Ca6b7E34aC0F824c42a7cC18A495cabaB;\r\n        places.push(Place(\" ( 1)\", 347935,0x617F2E2fD72FD9D5503197092aC168c91465E7f2));RoleCheck[0x617F2E2fD72FD9D5503197092aC168c91465E7f2] = 4;MailIndexToAddress[347935] =0x617F2E2fD72FD9D5503197092aC168c91465E7f2;\r\n        places.push(Place(\" ( 2)\", 347913,0x17F6AD8Ef982297579C203069C1DbfFE4348c372));RoleCheck[0x17F6AD8Ef982297579C203069C1DbfFE4348c372] = 4;MailIndexToAddress[347913] =0x17F6AD8Ef982297579C203069C1DbfFE4348c372;\r\n        places.push(Place(\" ( 3)\", 347928,0x5c6B0f7Bf3E7ce046039Bd8FABdfD3f9F5021678));RoleCheck[0x5c6B0f7Bf3E7ce046039Bd8FABdfD3f9F5021678] = 4;MailIndexToAddress[347928] =0x5c6B0f7Bf3E7ce046039Bd8FABdfD3f9F5021678;\r\n        places.push(Place(\" ( )\", 346400,0x03C6FcED478cBbC9a4FAB34eF9f40767739D1Ff7));RoleCheck[0x03C6FcED478cBbC9a4FAB34eF9f40767739D1Ff7] = 4;MailIndexToAddress[346400] =0x03C6FcED478cBbC9a4FAB34eF9f40767739D1Ff7;\r\n        places.push(Place(\" ( 1)\", 346424,0x1aE0EA34a72D944a8C7603FfB3eC30a6669E454C));RoleCheck[0x1aE0EA34a72D944a8C7603FfB3eC30a6669E454C] = 4;MailIndexToAddress[346424] =0x1aE0EA34a72D944a8C7603FfB3eC30a6669E454C;\r\n        places.push(Place(\" ( 2)\", 346414,0x0A098Eda01Ce92ff4A4CCb7A4fFFb5A43EBC70DC));RoleCheck[0x0A098Eda01Ce92ff4A4CCb7A4fFFb5A43EBC70DC] = 4;MailIndexToAddress[346414] =0x0A098Eda01Ce92ff4A4CCb7A4fFFb5A43EBC70DC;\r\n        places.push(Place(\" ( 3)\", 346448,0xCA35b7d915458EF540aDe6068dFe2F44E8fa733c));RoleCheck[0xCA35b7d915458EF540aDe6068dFe2F44E8fa733c] = 4;MailIndexToAddress[346448] =0xCA35b7d915458EF540aDe6068dFe2F44E8fa733c;\r\n    }\r\n    function resetCount() public {\r\n        MailCount = 0;\r\n    }\r\n    function AddAdmin(address adr,string memory name,string memory homeadr) public {\r\n        require(msg.sender == MainAdmin, \"   \");\r\n        require(RoleCheck[adr] == 0, \"     \");\r\n        admins.push(Admin(adr, name, homeadr, \"\", false));\r\n        RoleCheck[adr] = 1;\r\n    }\r\n    function AddWorker(address adr, string memory name, string memory homeadr, string memory Id) public {\r\n        require(RoleCheck[msg.sender] == 1, \"  \");\r\n        require(RoleCheck[adr] == 0, \"     \");\r\n        workers.push(Worker(adr, name, homeadr,\"\",Id));\r\n        RoleCheck[adr] = 2;\r\n        WorkAdrToName[adr] = name;\r\n    }\r\n    function UserRegister(string memory name, string memory homeadr) public {\r\n        require(RoleCheck[msg.sender] == 0, \"  \");\r\n        users.push(User(msg.sender, name, homeadr, \"\"));\r\n        RoleCheck[msg.sender] = 3;\r\n    }\r\n    function getMail1(uint id) public view returns(string memory,address, address, string memory, uint, uint, uint) {\r\n        return(mails[id].trek,mails[id].mailsender, mails[id].mailreceiver, mails[id].mailtype,mails[id].class, mails[id].time, mails[id].deliverycost);\r\n    }\r\n    function getMail2(uint id) public view returns(uint,uint, uint, string memory, string memory, bool, bool ) {\r\n        return(mails[id].weight,mails[id].decvalue, mails[id].fullcost, mails[id].sendadr, mails[id].recadr,mails[id].paid, mails[id].delivered);\r\n    }\r\n    function getMail3(uint id) public view returns(uint,bool,bool,bool) {\r\n        return(mails[id].finishweight,mails[id].finished,mails[id].weightdiff,mails[id].DeliveredLate);\r\n    }\r\n    function CreateMail(string memory trek, address payable sender, address payable receiver, uint startpostindex, uint endpostindex, string memory mailtype, uint class,//postindex  \r\n        uint weight, uint decvalue, string memory sendadr, string memory recadr) public {\r\n        MailCount++;//  \r\n        globalMailCount++;\r\n//        require (RoleCheck[msg.sender] == 2, \"   \");\r\n//        require (weight > 0);\r\n//        require (weight < 10);\r\n        mails.push(Mail(trek, sender, receiver, mailtype, class, (class * 5) + 5, 7 - (2*class), weight, decvalue, ((7 - (2*class))*weight) + (decvalue * 2), sendadr, recadr,0,false,false,false,false,false));//   10\r\n        TrekToId[trek] = mails.length-1;\r\n        AddressToPay[trek] = MailIndexToAddress[startpostindex];\r\n        MailDestination[trek] = endpostindex;\r\n        TimeToDeliver[trek] = now + ((class * 5) + 5) * 86400;\r\n    }\r\n    function payForMail(string memory trek) public payable {\r\n        require(mails[TrekToId[trek]].mailsender == msg.sender);\r\n        require(msg.value == (mails[TrekToId[trek]].fullcost)/10);\r\n        mails[TrekToId[trek]].paid == true;\r\n    }\r\n    function CreateTranzitPoint(string memory trek, uint index, uint weight) public {\r\n        require(RoleCheck[msg.sender] == 2, \"   \");\r\n        transitpoints.push(Transit(WorkAdrToName[msg.sender], trek, weight, index));\r\n        if (index == MailDestination[trek]) {\r\n            mails[TrekToId[trek]].delivered = true;\r\n            mails[TrekToId[trek]].finishweight = weight;\r\n            UserNotification(trek);\r\n            if (TimeToDeliver[trek] < now) {\r\n                NotDeliveredInTime(trek);\r\n            }\r\n        }\r\n\r\n    }\r\n    function UserNotification(string memory trek) public {\r\n        require(mails[TrekToId[trek]].delivered == true);\r\n        TimetoReceive[trek] = now + (14*86400);\r\n        if(((mails[TrekToId[trek]].weight - mails[TrekToId[trek]].finishweight)*100) < mails[TrekToId[trek]].weight * 15) {\r\n            mails[TrekToId[trek]].weightdiff = true;\r\n        }\r\n    }\r\n    function NotReceived(string memory trek, uint mail_id) public {\r\n        require(TimetoReceive[trek] < now, \"Time do not come yet\");\r\n        mails[mail_id].finished = true;\r\n    }\r\n    function NotDeliveredInTime(string memory trek) public payable {\r\n        require(TimeToDeliver[trek] < now, \"Time is not over\");\r\n        mails[TrekToId[trek]].DeliveredLate = true;\r\n        if (mails[TrekToId[trek]].class == 1) {\r\n            mails[TrekToId[trek]].mailsender.transfer(mails[TrekToId[trek]].fullcost);\r\n        }\r\n        else if (mails[TrekToId[trek]].class == 2) {\r\n            mails[TrekToId[trek]].mailsender.transfer(mails[TrekToId[trek]].deliverycost*5 + mails[TrekToId[trek]].decvalue * 2);//   10\r\n        }\r\n        else {\r\n            mails[TrekToId[trek]].mailsender.transfer(mails[TrekToId[trek]].decvalue);\r\n        }\r\n    }\r\n    function refuseMail(string memory trek) public {\r\n        require(mails[TrekToId[trek]].delivered == true);\r\n        require(msg.sender == mails[TrekToId[trek]].mailreceiver);\r\n        if (mails[TrekToId[trek]].weightdiff == true) {\r\n            if(mails[TrekToId[trek]].DeliveredLate == true) {\r\n                if (mails[TrekToId[trek]].class == 2) {\r\n                    mails[TrekToId[trek]].mailsender.transfer(mails[TrekToId[trek]].deliverycost/2);\r\n                }\r\n                else if (mails[TrekToId[trek]].class == 3) {\r\n                    mails[TrekToId[trek]].mailsender.transfer(mails[TrekToId[trek]].deliverycost);\r\n                }\r\n            }\r\n            else {\r\n                mails[TrekToId[trek]].mailsender.transfer(mails[TrekToId[trek]].fullcost);\r\n            }\r\n        }\r\n        mails[TrekToId[trek]].finished = true;\r\n    }\r\n    function acceptMail(string memory trek) public payable {\r\n        require(mails[TrekToId[trek]].delivered == true);\r\n        require(msg.sender == mails[TrekToId[trek]].mailreceiver);\r\n        AddressToPay[trek].transfer(mails[TrekToId[trek]].fullcost);\r\n        mails[TrekToId[trek]].finished = true;\r\n    }\r\n    function createTransfer(address payable receiver, uint time) public payable {\r\n        transfers.push(Transfer(msg.sender, receiver, msg.value, time));\r\n        TransferLifeTime[transfers.length-1] = now + time * 86400;\r\n    }\r\n    function acceptTransfer(uint transfer_id) public payable {\r\n        require(msg.sender == transfers[transfer_id].receiver, \"  \");\r\n        transfers[transfer_id].receiver.transfer(transfers[transfer_id].sum);\r\n    }\r\n    function refuseTransfer(uint transfer_id) public payable {\r\n        require(msg.sender == transfers[transfer_id].receiver, \"  \");\r\n        transfers[transfer_id].sender.transfer(transfers[transfer_id].sum);\r\n    }\r\n}\r\n",
  "sourcePath": "C:/Users//Desktop/mail/src/contracts/WorldSkills.sol",
  "compiler": {
    "name": "solc",
    "version": "0.5.16+commit.9c3226ce.Emscripten.clang"
  },
  "schemaVersion": "3.2.4",
  "updatedAt": "2020-10-01T19:27:47.853Z",
  "networkType": "ethereum",
  "devdoc": {
    "methods": {}
  },
  "userdoc": {
    "methods": {}
  }
}